S0110000444474657374696E672E737265638D
S11300000C9434000C9446000C9446000C94460066
S11300100C9446000C9446000C9446000C94460044
S11300200C9446000C9446000C9446000C94460034
S11300300C9446000C9446000C9446000C94460024
S11300400C9446000C9446000C9446000C94460014
S11300500C9446000C9446000C9446000C94460004
S11300600C9446000C94460011241FBECFEFD8E038
S1130070DEBFCDBF21E0A0E0B1E001C01D92A03100
S1130080B207E1F70E94A6040C94A2060C940000A7
S11300901092B90088E48093B800089594EA90938C
S11300A0BC004FEF50E060E070E0ECEBF0E09081DA
S11300B0992334F04150510961097109C0F704C012
S11300C0452B462B472B41F19091B900987F9830EE
S11300D011F0903119F58093BB0084E88093BC0043
S11300E08FEF90E0A0E0B0E0ECEBF0E02081222381
S11300F02CF00197A109B109C8F704C0892B8A2BF8
S11301008B2B71F09091B900987F983159F081E070
S1130110903449F480E0089581E0089581E00895E1
S113012081E0089580E0089584E98093BC0080E034
S113013090E0ECEBF0E0208124FF05C001968115EE
S113014021E09207C1F708958093BB0084E880936F
S1130150BC008FEF90E0A0E0B0E0ECEBF0E0208199
S113016022232CF00197A109B109C8F704C0892BF7
S11301708A2B8B2B41F09091B900987F81E09832C3
S113018019F480E0089581E00895EF92FF920F93AF
S11301901F93CF93DF936623D1F07A01162FC82FD4
S11301A080ED0E944E008C2F0E94A400E7016FEFA7
S11301B0610F062F10E00F5F1F4F0E0D1F1D899159
S11301C00E94A400C017D107D1F70E949400DF91C8
S11301D0CF911F910F91FF90EF900895CF93DF93EC
S11301E01F92CDB7DEB76983AE014F5F5F4F61E009
S11301F00E94C5000F90DF91CF91089584EC809305
S1130200BC008FEF90E0A0E0B0E0ECEBF0E02081E8
S113021022232CF00197A109B109C8F704C0892B46
S11302208A2B8B2B19F08091BB00089580E00895F0
S113023084E88093BC008FEF90E0A0E0B0E0ECEBAA
S1130240F0E0208122232CF00197A109B109C8F71D
S113025004C0892B8A2B8B2B19F08091BB00089545
S113026080E00895AF92BF92DF92EF92FF920F93D6
S11302701F93CF93DF936623B9F1C52FD42FD62EC6
S1130280182F80ED0E944E00812F0E94A40085E368
S11302908A95F1F7000081ED0E944E000D2F1C2F6E
S11302A0EE24EA94ED0CF12CEFEFEE1AFE0AC0E016
S11302B0D0E0AD2CB12CF1E0AF1AB108CA15DB05C2
S11302C029F40E941801F801808304C00E94FE00F2
S11302D0F801808321960F5F1F4FCE15DF0571F75C
S11302E0CD2D0E94940001C0C0E08C2FDF91CF91EE
S11302F01F910F91FF90EF90DF90BF90AF90089502
S1130300AB0161E00E9432010895EF92FF920F93D6
S11303101F93CF93DF931F92CDB7DEB7442389F1A8
S1130320F22E142F062FE82E1982BE016F5F7F4F25
S11303300E948001882329F1402F50E0411B51097C
S11303404F5F5F4F81E090E002C0880F991F1A95BC
S1130350E2F70197042E02C0880F991F0A94E2F76E
S11303602F2D30E002C0220F331F4A95E2F7682F89
S11303706095998169238223682B69838E2D0E945D
S1130380EE000F90DF91CF911F910F91FF90EF90AE
S11303900895FF920F931F93CF93DF931F92CDB7CE
S11303A0DEB7182F062FF42EBE016F5F7F4F0E9419
S11303B08001FF2059F021E030E0B90102C0660F4E
S11303C0771F0A95E2F78981682B0BC021E030E0A2
S11303D0B90102C0660F771F0A95E2F7609599810B
S11303E069236983812F0E94EE000F90DF91CF91E2
S11303F01F910F91FF90089540E066E08BE60E9404
S1130400C90108950E94480025E32A95F1F70000E8
S11304108FEF91EE24E0815090402040E1F700C03E
S113042000000E94FC018FE39CE90197F1F700C0F2
S1130430000021E043E062E08BE60E94850123E0B6
S113044043E062E08AE10E94850164E089E10E9460
S1130450EE0023E042E064E08BE10E94850120E0AD
S113046042E064E08CE10E94850108958F929F929E
S1130470AF92BF92CF92DF92EF92FF920F931F93AE
S1130480CF93DF934C015B016A01E90142E051E043
S11304906EE08BE30E943201E2E0F1E02081818191
S11304A090E0922BD4018D939C932281838190E0E0
S11304B0922BD5018D939C932481858190E0922B7E
S11304C0D6018D939C932085818590E0922B99830E
S11304D088832285838590E0922BD8018D939C9309
S11304E02485858590E0922BF70191838083DF91A9
S11304F0CF911F910F91FF90EF90DF90CF90BF901D
S1130500AF909F908F9008952F923F924F925F9259
S11305106F927F928F929F92AF92BF92CF92DF920F
S1130520EF92FF920F931F93CF93DF93CDB7DEB774
S11305302C970FB6F894DEBF0FBECDBF3C014B0124
S11305405A016901280117011A8219821C821B822F
S11305501E821D8218861F821A8619861C861B8697
S1130560CE010B967C018E01075F1F4F9E01295F10
S11305703F4FAE014B5F5F4FBE016D5F7F4F0A97E8
S11305800E94360269817A81072E000C880B990B30
S11305900E94430520E030E040E858E30E94CF0584
S11305A0F30160837183828393836B817C81072E43
S11305B0000C880B990B0E94430520E030E040E8D2
S11305C058E30E94CF05F40160837183828393838F
S11305D06D817E81072E000C880B990B0E944305C8
S11305E020E030E040E858E30E94CF05F501608345
S11305F07183828393836F817885665D7F4F072E35
S1130600000C880B990B0E94430523E333E343E872
S113061051E40E94CF04F601608371838283938343
S113062069857A8569507109072E000C880B990B2E
S11306300E94430523E333E343E851E40E94CF04DB
S1130640F20160837183828393836B857C85635E0F
S11306507F4F072E000C880B990B0E94430523E360
S113066033E343E851E40E94CF04F10160837183D2
S1130670828393832C960FB6F894DEBF0FBECDBF52
S1130680DF91CF911F910F91FF90EF90DF90CF906A
S1130690BF90AF909F908F907F906F905F904F909E
S11306A03F902F900895E5ECF0E080818083E4ECA6
S11306B0F0E0808187668083E1ECF0E080818861EE
S11306C08083E2ECF0E08081866080830895E0EC32
S11306D0F0E0908195FFFDCF8093C6000895CF93FD
S11306E0DF93EC018881882339F0219690E00E9401
S11306F0670389918111FACFDF91CF910895EAE7D9
S1130700F0E0808184608083ECE7F0E080818062A7
S1130710808380818F7380830895ECE7F0E02081EB
S1130720207F208382309105B9F02CF4009749F0A2
S1130730019761F022C083309105A1F00497C1F0C4
S11307401CC0ECE7F0E08081808317C0ECE7F0E0A8
S113075080818160808311C0ECE7F0E08081826059
S113076080830BC0ECE7F0E080818360808305C068
S1130770ECE7F0E0808184608083EAE7F0E0808148
S113078080688083A4E6B0E08C918E7F8C93808116
S113079080648083808186FDFDCF0895CF93DF93AD
S11307A0CDB7DEB72A970FB6F894DEBF0FBECDBF24
S11307B0EAE7F0E0808186FDFDCF809179004AE090
S11307C0BE016F5F7F4F90E00E943C06CE01019610
S11307D00E946F032A960FB6F894DEBF0FBECDBFFA
S11307E0DF91CF910895EF92FF920F931F93CF93D0
S11307F0DF93CDB7DEB7AE970FB6F894DEBF0FBE6A
S1130800CDBF90930101809300011A8219821C824A
S11308101B821E821D8218861F821A8619861C86D8
S11308201B861D861E861F86188A198A1A8A1B8AA9
S11308301C8A1D8A1E8A1F8A188E198E1A8E1B8E78
S11308401C8E1D8E1E8E1F8E18A219A21AA21BA208
S11308501CA278940E9402022FEF80E792E02150BC
S113086080409040E1F700C00000CE010B967C016F
S11308708E01075F1F4F9E01295F3F4FAE014B5F03
S11308805F4FBE016D5F7F4F0A970E943602CE0113
S113089081967C010C5E1F4F9E01275E3F4FAE0187
S11308A04B5E5F4FBE016F5E7F4F44970E94840290
S11308B069817A81072E000C880B990B2AE0AE011E
S11308C04B5D5F4F0E944706CE0185960E946F03E1
S11308D08BE290E00E9467036B817C81072E000C01
S11308E0880B990B2AE0AE014B5D5F4F0E944706CF
S11308F0CE0185960E946F038BE290E00E9467030D
S11309006D817E81072E000C880B990B2AE0AE01C5
S11309104B5D5F4F0E944706CE0185960E946F0390
S11309209FEF21EE84E0915020408040E1F700C029
S11309300000AE960FB6F894DEBF0FBECDBFDF91B8
S1130940CF911F910F91FF90EF9008950E94530350
S11309500E947F0305E010E083E290E00E946703B9
S1130960C02FD12F80E090E00E948D030E94CE031F
S11309708BE290E00E9467032197A1F780E090E06A
S11309800E94F3038BE290E00E94670381E090E011
S11309900E94F3038EE790E00E946703DDCF0E947C
S11309A0E3040C9495050E948E0558F00E94870577
S11309B040F029F45F3F29F00C947E0551110C940A
S11309C0C9050C9484050E94A60568F39923B1F324
S11309D0552391F3951B550BBB27AA276217730761
S11309E0840738F09F5F5F4F220F331F441FAA1FF5
S11309F0A9F335D00E2E3AF0E0E832D091505040B1
S1130A00E695001CCAF72BD0FE2F29D0660F771F5E
S1130A10881FBB1F261737074807AB07B0E809F044
S1130A20BB0B802DBF01FF2793585F4F3AF09E3FC9
S1130A30510578F00C947E050C94C9055F3FE4F3EE
S1130A40983ED4F3869577956795B795F7959F5F0C
S1130A50C9F7880F911D9695879597F90895E1E058
S1130A60660F771F881FBB1F621773078407BA07B7
S1130A7020F0621B730B840BBA0BEE1F88F7E09512
S1130A800895E89409C097FB3EF49095809570957D
S1130A9061957F4F8F4F9F4F9923A9F0F92F96E9C6
S1130AA0BB279395F695879577956795B795F1113B
S1130AB0F8CFFAF4BB0F11F460FF1BC06F5F7F4FD8
S1130AC08F4F9F4F16C0882311F096E911C07723EA
S1130AD021F09EE8872F762F05C0662371F096E8F3
S1130AE0862F70E060E02AF09A95660F771F881FC2
S1130AF0DAF7880F9695879597F9089597F99F6780
S1130B0080E870E060E008959FEF80EC0895002491
S1130B100A941616170618060906089500240A945E
S1130B2012161306140605060895092E0394000CE4
S1130B3011F4882352F0BB0F40F4BF2B11F460FF73
S1130B4004C06F5F7F4F8F4F9F4F089557FD90589C
S1130B50440F551F59F05F3F71F04795880F97FB7D
S1130B60991F61F09F3F79F0879508951216130637
S1130B701406551FF2CF4695F1DF08C01616170666
S1130B801806991FF1CF869571056105089408959B
S1130B90E894BB2766277727CB0197F908950E942D
S1130BA0E2050C9495050E94870538F00E948E0595
S1130BB020F0952311F00C947E050C9484051124E7
S1130BC00C94C9050E94A60570F3959FC1F3950F77
S1130BD050E0551F629FF001729FBB27F00DB11DBD
S1130BE0639FAA27F00DB11DAA1F649F6627B00D4D
S1130BF0A11D661F829F2227B00DA11D621F739F36
S1130C00B00DA11D621F839FA00D611D221F749F43
S1130C103327A00D611D231F849F600D211D822F8A
S1130C20762F6A2F11249F5750409AF0F1F08823B1
S1130C304AF0EE0FFF1FBB1F661F771F881F9150DE
S1130C405040A9F79E3F510580F00C947E050C940A
S1130C50C9055F3FE4F3983ED4F38695779567958D
S1130C60B795F795E7959F5FC1F7FE2B880F911D08
S1130C709695879597F90895BB274A3031F49923BF
S1130C8022F4BDE2909581959F4F0C947906BB2781
S1130C902A3051F4992342F4BDE2909580957095E1
S1130CA061957F4F8F4F9F4F0C945706BB27FA01D6
S1130CB0A62F6217710581059105330B30FB66F091
S1130CC0AA27660F771F881F991FAA1FA21710F063
S1130CD0A21B63953850A9F7A05DAA3308F0A95D5B
S1130CE0A19336F7B111B1931082CA010C94920604
S1130CF0BB27FB015527AA27880F991FAA1FA417F2
S1130D0010F0A41B83955051B9F7A05DAA3308F0E5
S1130D10A95DA193009779F7B111B1931192CB0119
S1130D200C949206DC01FC01672F71917723E1F7A3
S1130D30329704C07C916D9370836291AE17BF07A4
S10B0D40C8F30895F894FFCFF5
S9030000FC
