S0110000444474657374696E672E737265638D
S11300000C9434000C9446000C9446000C94460066
S11300100C9446000C9446000C9446000C94460044
S11300200C9446000C9446000C9446000C94460034
S11300300C9446000C9446000C9446000C94460024
S11300400C9446000C9446000C9446000C94460014
S11300500C9446000C9446000C9446000C94460004
S11300600C9446000C94460011241FBECFEFD8E038
S1130070DEBFCDBF21E0A0E0B1E001C01D92A03100
S1130080B207E1F70E9437050C9408080C940000AD
S11300901092B90088E48093B800089594EA90938C
S11300A0BC004FEF50E060E070E0ECEBF0E09081DA
S11300B0992334F04150510961097109C0F704C012
S11300C0452B462B472B41F19091B900987F9830EE
S11300D011F0903119F58093BB0084E88093BC0043
S11300E08FEF90E0A0E0B0E0ECEBF0E02081222381
S11300F02CF00197A109B109C8F704C0892B8A2BF8
S11301008B2B71F09091B900987F983159F081E070
S1130110903449F480E0089581E0089581E00895E1
S113012081E0089580E0089584E98093BC0080E034
S113013090E0ECEBF0E0208124FF05C001968115EE
S113014021E09207C1F708958093BB0084E880936F
S1130150BC008FEF90E0A0E0B0E0ECEBF0E0208199
S113016022232CF00197A109B109C8F704C0892BF7
S11301708A2B8B2B41F09091B900987F81E09832C3
S113018019F480E0089581E00895EF92FF920F93AF
S11301901F93CF93DF936623D1F07A01162FC82FD4
S11301A080ED0E944E008C2F0E94A400E7016FEFA7
S11301B0610F062F10E00F5F1F4F0E0D1F1D899159
S11301C00E94A400C017D107D1F70E949400DF91C8
S11301D0CF911F910F91FF90EF900895CF93DF93EC
S11301E01F92CDB7DEB76983AE014F5F5F4F61E009
S11301F00E94C5000F90DF91CF91089584EC809305
S1130200BC008FEF90E0A0E0B0E0ECEBF0E02081E8
S113021022232CF00197A109B109C8F704C0892B46
S11302208A2B8B2B19F08091BB00089580E00895F0
S113023084E88093BC008FEF90E0A0E0B0E0ECEBAA
S1130240F0E0208122232CF00197A109B109C8F71D
S113025004C0892B8A2B8B2B19F08091BB00089545
S113026080E00895AF92BF92DF92EF92FF920F93D6
S11302701F93CF93DF93662399F1C52FD42FD62EE6
S1130280182F80ED0E944E00812F0E94A40081ED62
S11302900E944E000D2F1C2FEE24EA94ED0CF12C3D
S11302A08FEFE81AF80AC0E0D0E0AD2CB12CE1E001
S11302B0AE1AB108CA15DB0529F40E941801F80129
S11302C0808304C00E94FE00F801808321960F5FA2
S11302D01F4FCE15DF0571F7CD2D0E94940001C08C
S11302E0C0E08C2FDF91CF911F910F91FF90EF9081
S11302F0DF90BF90AF900895AB0161E00E9432019E
S11303000895EF92FF920F931F93CF93DF931F9261
S1130310CDB7DEB7442389F1F22E142F062FE82E31
S11303201982BE016F5F7F4F0E947C01882329F1EF
S1130330402F50E0411B51094F5F5F4F81E090E037
S113034002C0880F991F1A95E2F70197042E02C084
S1130350880F991F0A94E2F72F2D30E002C0220F74
S1130360331F4A95E2F7682F6095998169238223A8
S1130370682B69838E2D0E94EE000F90DF91CF9140
S11303801F910F91FF90EF900895FF920F931F9389
S1130390CF93DF931F92CDB7DEB7182F062FF42E1D
S11303A0BE016F5F7F4F0E947C01FF2059F021E066
S11303B030E0B90102C0660F771F0A95E2F7898120
S11303C0682B0BC021E030E0B90102C0660F771F33
S11303D00A95E2F76095998169236983812F0E94C8
S11303E0EE000F90DF91CF911F910F91FF90089530
S11303F040E066E08BE60E94C50108950E94480033
S11304008FE39FE10197F1F700C000000E94F8011B
S113041021E043E062E08BE60E94810123E043E0B7
S113042062E08AE10E94810164E089E10E94EE00B9
S113043023E042E064E08BE10E94810120E042E09D
S113044064E08CE10E94810108958F929F92AF92A3
S1130450BF92CF92DF92EF92FF920F931F93CF93AD
S1130460DF934C015B016A01E90142E051E06EE077
S11304708BE30E943201E2E0F1E02081818190E08F
S1130480922BD4018D939C932281838190E0922BB3
S1130490D5018D939C932481858190E0922BD60184
S11304A08D939C932085818590E0922B99838883FA
S11304B02285838590E0922BD8018D939C9324858B
S11304C0858590E0922BF70191838083DF91CF9112
S11304D01F910F91FF90EF90DF90CF90BF90AF905E
S11304E09F908F9008952F923F924F925F926F92B8
S11304F07F928F929F92AF92BF92CF92DF92EF92B0
S1130500FF920F931F93CF93DF93CDB7DEB72C9752
S11305100FB6F894DEBF0FBECDBF3C014B015A01AC
S11305206901280117011A8219821C821B821E820A
S11305301D8218861F821A8619861C861B86CE0188
S11305400B967C018E01075F1F4F9E01295F3F4F71
S1130550AE014B5F5F4FBE016D5F7F4F0A970E94F4
S1130560250269817A816A527E4F072E000C880B1E
S1130570990B0E94800620E030E040E858E30E9496
S11305803507F30160837183828393836B817C815C
S1130590675F7540072E000C880B990B0E9480063C
S11305A020E030E040E858E30E943507F40160831E
S11305B07183828393836D817E8168597340072E92
S11305C0000C880B990B0E94800620E030E040E884
S11305D058E30E943507F501608371838283938316
S11305E06F81788568547109072E000C880B990B6C
S11305F00E94800623E333E343E851E40E94D605D6
S1130600F601608371838283938369857A8561525D
S11306107109072E000C880B990B0E94800623E3B6
S113062033E343E851E40E94D605F2016083718309
S1130630828393836B857C85625F7F4F072E000CDA
S1130640880B990B0E94800623E333E343E851E4CB
S11306500E94D605F10160837183828393832C9673
S11306600FB6F894DEBF0FBECDBFDF91CF911F91BF
S11306700F91FF90EF90DF90CF90BF90AF909F903D
S11306808F907F906F905F904F903F902F90089540
S11306904F925F926F927F928F929F92AF92BF928E
S11306A0CF92DF92EF92FF926B017C0141305105B2
S11306B0E1F01CF4452B41F04AC04230510531F1C0
S11306C043305105A1F143C00F2E412C512CF6E1CA
S11306D06F2EF3E47F2EF02D0F2E812C912CF0E75A
S11306E0AF2EF2E4BF2EF02D32C00F2E412C512C30
S11306F0F4E36F2EF3E47F2EF02D0F2E812C912C3A
S1130700FCE8AF2EF2E4BF2EF02D21C00F2E412CB9
S1130710512CF0EF6F2EF2E47F2EF02D0F2E812C52
S1130720912CF2E8AF2EF2E4BF2EF02D10C00F2E64
S1130730412C512CF7E06F2EF3E47F2EF02D0F2E79
S1130740812C912CF6E9AF2EF2E4BF2EF02DA701F7
S11307509601C501B4010E943007181634F1A701AF
S11307609601C301B2010E94D10588230CF1A501B1
S11307709401C701B6010E9464056B017C01A501C7
S11307809401C301B2010E9464059B01AC01C7013D
S1130790B6010E94D60520E030E048EC52E40E9405
S11307A035070E944806CB0105C080E090E002C0F6
S11307B084E690E0FF90EF90DF90CF90BF90AF90F1
S11307C09F908F907F906F905F904F900895E5EC8D
S11307D0F0E080818083E4ECF0E0808189618083B3
S11307E0E1ECF0E0808188618083E2ECF0E08081DC
S11307F0866080830895E0ECF0E0908195FFFDCF62
S11308008093C6000895CF93DF93EC0188818823F9
S113081039F0219690E00E94FB0389918111FACF6F
S1130820DF91CF910895EAE7F0E0808184608083CE
S1130830ECE7F0E080818062808380818F73808325
S11308408081806480830895ECE7F0E02081207F3C
S1130850208382309105B9F02CF4009749F0019778
S113086061F022C083309105A1F00497C1F01CC04F
S1130870ECE7F0E08081808317C0ECE7F0E0808152
S11308808160808311C0ECE7F0E080818260808326
S11308900BC0ECE7F0E080818360808305C0ECE767
S11308A0F0E0808184608083EAE7F0E08081806802
S11308B08083A4E6B0E08C918E7F8C9380818064E9
S11308C08083808186FDFDCF08950F931F93CF937E
S11308D0DF93CDB7DEB72A970FB6F894DEBF0FBE0D
S11308E0CDBF8C01EAE7F0E0908196FDFDCF6091E9
S11308F0790070E080E090E00E948006A8010E94E8
S113090048034AE0BE016F5F7F4F0E94A207CE01F9
S113091001960E9403042A960FB6F894DEBF0FBE18
S1130920CDBFDF91CF911F910F910895EF92FF9268
S11309300F931F93CF93DF93CDB7DEB7AE970FB668
S1130940F894DEBF0FBECDBF9093010180930001E8
S11309501A8219821C821B821E821D8218861F82A3
S11309601A8619861C861B861D861E861F86188A73
S1130970198A1A8A1B8A1C8A1D8A1E8A1F8A188E43
S1130980198E1A8E1B8E1C8E1D8E1E8E1F8E18A203
S113099019A21AA21BA21CA278940E94FE01CE01E5
S11309A00B967C018E01075F1F4F9E01295F3F4F0D
S11309B0AE014B5F5F4FBE016D5F7F4F0A970E9490
S11309C02502CE0181967C010C5E1F4F9E01275E9D
S11309D03F4FAE014B5E5F4FBE016F5E7F4F44974A
S11309E00E94730269817A81072E000C880B990B8F
S11309F02AE0AE014B5D5F4F0E94AD07CE018596A4
S1130A000E9403048BE290E00E94FB036B817C81D3
S1130A10072E000C880B990B2AE0AE014B5D5F4F4B
S1130A200E94AD07CE0185960E9403048BE290E0FC
S1130A300E94FB036D817E81072E000C880B990BAD
S1130A402AE0AE014B5D5F4F0E94AD07CE01859653
S1130A500E940304AE960FB6F894DEBF0FBECDBF5E
S1130A60DF91CF911F910F91FF90EF9008950E9415
S1130A70E7030E941304549A5C9A00E010E083E2B6
S1130A8090E00E94FB03C02FD12FCE010E942404CA
S1130A90CE010E9465048BE290E00E94FB03219644
S1130AA0C430D10591F7802F912F0E9496048BE2D8
S1130AB090E00E94FB0381E090E00E9496048EE7A0
S1130AC090E00E94FB03DBCF5058BB27AA270E946B
S1130AD07C050C94F6060E94E80638F00E94EF06A6
S1130AE020F039F49F3F19F426F40C94E5060EF433
S1130AF0E095E7FB0C94DF06E92F0E94070758F303
S1130B00BA17620773078407950720F079F4A6F5EE
S1130B100C9429070EF4E0950B2EBA2FA02D0B018F
S1130B20B90190010C01CA01A0011124FF27591B2E
S1130B3099F0593F50F4503E68F11A16F040A22F34
S1130B40232F342F4427585FF3CF469537952795A5
S1130B50A795F0405395C9F77EF41F16BA0B620BA4
S1130B60730B840BBAF09150A1F0FF0FBB1F661FEB
S1130B70771F881FC2F70EC0BA0F621F731F841F2E
S1130B8048F4879577956795B795F7959E3F08F054
S1130B90B0CF9395880F08F09927EE0F9795879516
S1130BA008950E94BB0608F481E008950E94EA05B6
S1130BB00C94F6060E94EF0658F00E94E80640F0F6
S1130BC029F45F3F29F00C94DF0651110C942A0795
S1130BD00C94E5060E94070768F39923B1F35523A3
S1130BE091F3951B550BBB27AA276217730784073C
S1130BF038F09F5F5F4F220F331F441FAA1FA9F3D2
S1130C0035D00E2E3AF0E0E832D091505040E695BF
S1130C10001CCAF72BD0FE2F29D0660F771F881F20
S1130C20BB1F261737074807AB07B0E809F0BB0B13
S1130C30802DBF01FF2793585F4F3AF09E3F510527
S1130C4078F00C94DF060C942A075F3FE4F3983E97
S1130C50D4F3869577956795B795F7959F5FC9F710
S1130C60880F911D9695879597F90895E1E0660F91
S1130C70771F881FBB1F621773078407BA0720F00A
S1130C80621B730B840BBA0BEE1F88F7E095089573
S1130C900E944F066894B1110C942A0708950E948B
S1130CA00F0788F09F5798F0B92F9927B751B0F0E4
S1130CB0E1F0660F771F881F991F1AF0BA95C9F7DC
S1130CC014C0B13091F00E942907B1E008950C944A
S1130CD02907672F782F8827B85F39F0B93FCCF3FD
S1130CE0869577956795B395D9F73EF49095809559
S1130CF0709561957F4F8F4F9F4F0895E89409C079
S1130D0097FB3EF490958095709561957F4F8F4F3A
S1130D109F4F9923A9F0F92F96E9BB279395F69550
S1130D20879577956795B795F111F8CFFAF4BB0FCE
S1130D3011F460FF1BC06F5F7F4F8F4F9F4F16C032
S1130D40882311F096E911C0772321F09EE8872FBC
S1130D50762F05C0662371F096E8862F70E060E078
S1130D602AF09A95660F771F881FDAF7880F9695F1
S1130D70879597F90895990F0008550FAA0BE0E895
S1130D80FEEF16161706E807F907C0F01216130649
S1130D90E407F50798F0621B730B840B950B39F489
S1130DA00A2661F0232B242B252B21F408950A26EF
S1130DB009F4A140A6958FEF811D811D089597F92F
S1130DC09F6780E870E060E008959FEF80EC0895ED
S1130DD000240A9416161706180609060895002416
S1130DE00A9412161306140605060895092E039490
S1130DF0000C11F4882352F0BB0F40F4BF2B11F404
S1130E0060FF04C06F5F7F4F8F4F9F4F089557FD62
S1130E109058440F551F59F05F3F71F04795880F64
S1130E2097FB991F61F09F3F79F0879508951216FB
S1130E3013061406551FF2CF4695F1DF08C01616A7
S1130E4017061806991FF1CF869571056105089458
S1130E500895E894BB2766277727CB0197F908956F
S1130E600E94BB0608F48FEF08950E9448070C9473
S1130E70F6060E94E80638F00E94EF0620F095235B
S1130E8011F00C94DF060C94E50611240C942A0747
S1130E900E94070770F3959FC1F3950F50E0551F0B
S1130EA0629FF001729FBB27F00DB11D639FAA27BB
S1130EB0F00DB11DAA1F649F6627B00DA11D661F0A
S1130EC0829F2227B00DA11D621F739FB00DA11D2B
S1130ED0621F839FA00D611D221F749F3327A00DE5
S1130EE0611D231F849F600D211D822F762F6A2F81
S1130EF011249F5750409AF0F1F088234AF0EE0FE6
S1130F00FF1FBB1F661F771F881F91505040A9F712
S1130F109E3F510580F00C94DF060C942A075F3F36
S1130F20E4F3983ED4F3869577956795B795F7954E
S1130F30E7959F5FC1F7FE2B880F911D96958795C6
S1130F4097F90895BB274A3031F4992322F4BDE27E
S1130F50909581959F4F0C94DF07BB272A3051F45D
S1130F60992342F4BDE290958095709561957F4FE9
S1130F708F4F9F4F0C94BD07BB27FA01A62F621712
S1130F80710581059105330B30FB66F0AA27660FC6
S1130F90771F881F991FAA1FA21710F0A21B639521
S1130FA03850A9F7A05DAA3308F0A95DA19336F7DC
S1130FB0B111B1931082CA010C94F807BB27FB014D
S1130FC05527AA27880F991FAA1FA41710F0A41B3E
S1130FD083955051B9F7A05DAA3308F0A95DA19398
S1130FE0009779F7B111B1931192CB010C94F807E2
S1130FF0DC01FC01672F71917723E1F7329704C07C
S11310007C916D9370836291AE17BF07C8F3089506
S1071010F894FFCF7E
S9030000FC
